:060000000A128A112C2FE8
:100E580083010A128A11892F8316031788018901D1
:100E68008316031386128B13392F08000A128A116E
:100E780049270A128A11831203138C1E442F452F07
:100E88003A2F462F1A08482F080083120313981C7C
:100E98004E2F4F2F572F831603139812981683122D
:100EA800031318121816181D5A2F5B2F652F1A08CE
:100EB800F0007008F1008316031398129816652F36
:100EC800652F0800831603138717071318121815C0
:100ED800831603178711831603131813831203133A
:100EE80018130A128A11AF270A128A1183160313DC
:100EF8009A018312031398171816831603130C12FA
:100F08008C1298129816882F08000A128A11302716
:100F18000A128A110A128A1166270A128A11942F54
:100F28000A128A113A270A128A11F6007608F7007F
:100F38007708413A031DA12FA22FA62F831203136E
:100F48008616942F831203138612942F942F942FAE
:100F58000A128A11002883160313181DB42FB52FFF
:100F6800FF2F831603178719BA2FBB2FFF2FD32FF5
:100F7800D32FCF3003139900FF2F67300313990045
:100F8800FF2F193003139900FF2F1730031399000F
:100F9800FF2F0C3003139900FF2FFF2FFF2F253051
:100FA800043A0319E42F0D3A0319E92F2C3A0319CF
:100FB800EE2F0D3A0319F32F633A0319F82FFF2F79
:100FC8008030B03A0319BD2FFF2F8030603A0319E3
:100FD800C12FFF2F8030803A0319C52FFF2F803093
:100FE800B13A0319C92FFF2F8030003A0319CD2FCA
:080FF800FF2FFF2FFF2F08005F
:04400E00F4E0FFFEDD
:00000001FF
