:060000000A128A11122809
:10000800FE00030EF3000408F4000A08F50083124A
:1000180003137F08F6000A128A11BA280A128A11F5
:10002800042983160313181D1A281B28652883160C
:100038000317871920282128652839283928CF301F
:100048000313990065286730031399006528193050
:1000580003139900652817300313990065280C309D
:10006800031399006528652865282530043A031983
:100078004A280D3A03194F282C3A031954280D3AE7
:1000880003195928633A03195E2865288030B03A65
:100098000319232865288030603A03192728652822
:1000A8008030803A03192B2865288030B13A03192B
:1000B8002F2865288030003A0319332865286528D9
:1000C80065280800831603138717071318121815D5
:1000D8008316031787118316031318138312031348
:1000E80018130A128A1115200A128A11831603138B
:1000F8009A018312031398171816831603130C1208
:10010800831203132108200403198B288C289228B2
:10011800831603138C168B170B1795288316031356
:100128008C129812981608000A128A110F210A12C6
:100138008A11013083120313A0000030A1000A12B3
:100148008A1166200A128A11A92883120313260825
:10015800413A031DB028B128B3288616A92886126B
:10016800A928A928A9280A128A1112288B130B1268
:100178008C1EBF28C028CB280A128A11F5200A1223
:100188008A11F200720883120313A600CB288B177A
:100198000B167608FF0075088A0074088400730E31
:1001A8008300FE0E7E0E090083120313981CDD28BF
:1001B800DE28E62883160313981298168312031371
:1001C80018121816181DE928EA28F4281A08F00049
:1001D8007008F1008316031398129816F428F4286F
:1001E80008000A128A11D8200A128A1183120313EE
:1001F8008C1EFF280029F52801291A080329080060
:1002080083120A128A1119210A128A11A60083017F
:100218000A128A1198288316031788018901831600
:0C022800031386128B13182908004134C0
:04400E00F4E0FFFEDD
:00000001FF
