:060000000A128A11122809
:10000800FE00030EF3000408F4000A08F50083124A
:1000180003137F08F6000A128A11DE280A128A11D1
:100028003A2983160313181D1A281B2865288316D6
:100038000317871920282128652839283928CF301F
:100048000313990065286730031399006528193050
:1000580003139900652817300313990065280C309D
:10006800031399006528652865282530043A031983
:100078004A280D3A03194F282C3A031954280D3AE7
:1000880003195928633A03195E2865288030B03A65
:100098000319232865288030603A03192728652822
:1000A8008030803A03192B2865288030B13A03192B
:1000B8002F2865288030003A0319332865286528D9
:1000C80065280800831603138717071318121815D5
:1000D8008316031787118316031318138312031348
:1000E80018130A128A1115200A128A11831603138B
:1000F8009A018312031398171816831603130C1208
:10010800831203132108200403198B288C289228B2
:10011800831603138C168B170B1795288316031356
:100128008C129812981608000A128A1145210A1290
:100138008A11013083120313A0000030A1000A12B3
:100148008A1166200A128A110A128A1119210A12C2
:100158008A11AE28831203132608413A031DB528D5
:10016800B628B8288616AE288612AE28AE28AE283D
:100178000A128A1112288316031387140715FF30F1
:100188009200FF30831203139500FF309B000C3060
:1001980097000C309D0083160313871007118312F4
:1001A80003138C10831603138C100430831203136B
:1001B800920008008B130B128C1EE328E428EF280A
:1001C8000A128A112B210A128A11F200720883126C
:1001D8000313A600EF288B170B167608FF00750887
:1001E8008A0074088400730E8300FE0E7E0E0900D8
:1001F80083120313981C012902290A298316031361
:10020800981298168312031318121816181D0D2920
:100218000E2918291A08F0007008F1008316031334
:100228009812981618291829080083160313051020
:100238008510051185118312031305148510051502
:1002480085110A128A11BF200A128A1108000A129F
:100258008A11FC200A128A11831203138C1E352975
:1002680036292B2937291A083929080083120A1236
:100278008A114F210A128A11A60083010A128A11D3
:100288009828831603178801890183160313861299
:080298008B134E2908004134CC
:08400000FF3FFF3FFF3FFF3FC0
:04400E00F4E0FFFEDD
:00000001FF
