:060000000A128A11122809
:10000800FE00030EF3000408F4000A08F50083124A
:1000180003137F08F6000A128A114A290A128A1164
:10002800E02983120313A50025087F3A03191D2828
:100038001E2825282508803A031D2328242830282F
:1000480025282208A3002308A00000300A128A11DC
:10005800A8210A128A118F288130831203132502DE
:10006800031C3728382861282208013A031D3D2837
:100078003E28412805148510442805158511442873
:1000880025087F3EA3002308A5002508A30001300A
:100098000310A30DFF3E031D4C280310230DA400DD
:1000A8002408A5002208A3002308A00025080A1296
:1000B8008A11A8210A128A118F287F30831203130C
:1000C80025020318682869288F282208013A031D89
:1000D8006E286F2872280510851475280511851556
:1000E80075282508A30001300310A30DFF3E031D4A
:1000F80078280310230DA4002408A5002208A300D3
:100108002308A00025080A128A11A8210A128A11B8
:100118008F288F288F28080083160313181D952809
:100128009628E0288316031787199B289C28E0281F
:10013800B428B428CF3003139900E028673003139C
:100148009900E028193003139900E02817300313A9
:100158009900E0280C3003139900E028E028E028F3
:100168002530043A0319C5280D3A0319CA282C3A30
:100178000319CF280D3A0319D428633A0319D9284B
:10018800E0288030B03A03199E28E0288030603A91
:100198000319A228E0288030803A0319A628E0280D
:1001A8008030B13A0319AA28E0288030003A0319B0
:1001B800AE28E028E028E02808000A128A11EB217E
:1001C8000A128A11013083120313A0000030A10023
:1001D8000A128A1118210A128A110A128A11BF21D9
:1001E8000A128A11F728831203132A08413A031DB9
:1001F800FE28FF2809298616A201A20AFF300A1242
:100208008A1115200A128A11F7288612A201A20A59
:1002180080300A128A1115200A128A11F728F72845
:10022800F7280A128A11122883160313871707134F
:10023800181218158316031787118316031318133A
:100248008312031318130A128A1190200A128A11B2
:10025800831603139A01831203139817181683162B
:1002680003130C12831203132108200403193D29D8
:100278003E294429831603138C168B170B1747291D
:10028800831603138C129812981608008C1E4D2999
:100298004E2959290A128A11D1210A128A11F2000B
:1002A800720883120313AA0060298C1C5C295D293B
:1002B80060298C10602960297608FF0075088A007B
:1002C80074088400730E8300FE0E7E0E09008316E8
:1002D800031387140715FF30920083120313950147
:1002E8009B010C3097000C309D008C108316031373
:1002F8008C10043083120313920082298C1C8529E8
:100308008629822983160313871007110800831290
:100318000313981C9029912999298316031398127D
:1003280098168312031318121816181D9C299D2954
:10033800A7291A08F0007008F10083160313981211
:100348009816A729A729080083120313A1002008DB
:10035800013A031DB029B129B42921089500BE2905
:100368002008023A031DB929BA29BE2921089B0091
:10037800BE29BE2908008316031305108510051130
:1003880085118312031305148510051585110A12AA
:100398008A116B210A128A1108000A128A118B210C
:1003A8000A128A11831203138C1EDB29DC29D12936
:1003B800DD291A08DF29080083120A128A11F5219B
:1003C8000A128A11AA0083010A128A11E1288316E7
:1003D8000317880189018316031386128B13F429E6
:0403E8000800413494
:08400000FF3FFF3FFF3FFF3FC0
:04400E00F4E0FFFEDD
:00000001FF
